{
  "contractName": "Token",
  "abi": [
    {
      "inputs": [],
      "stateMutability": "nonpayable",
      "type": "constructor"
    },
    {
      "anonymous": false,
      "inputs": [
        {
          "indexed": true,
          "internalType": "address",
          "name": "owner",
          "type": "address"
        },
        {
          "indexed": true,
          "internalType": "address",
          "name": "approved",
          "type": "address"
        },
        {
          "indexed": true,
          "internalType": "uint256",
          "name": "tokenId",
          "type": "uint256"
        }
      ],
      "name": "Approval",
      "type": "event"
    },
    {
      "anonymous": false,
      "inputs": [
        {
          "indexed": true,
          "internalType": "address",
          "name": "owner",
          "type": "address"
        },
        {
          "indexed": true,
          "internalType": "address",
          "name": "operator",
          "type": "address"
        },
        {
          "indexed": false,
          "internalType": "bool",
          "name": "approved",
          "type": "bool"
        }
      ],
      "name": "ApprovalForAll",
      "type": "event"
    },
    {
      "anonymous": false,
      "inputs": [
        {
          "indexed": true,
          "internalType": "address",
          "name": "from",
          "type": "address"
        },
        {
          "indexed": true,
          "internalType": "address",
          "name": "to",
          "type": "address"
        },
        {
          "indexed": true,
          "internalType": "uint256",
          "name": "tokenId",
          "type": "uint256"
        }
      ],
      "name": "Transfer",
      "type": "event"
    },
    {
      "inputs": [
        {
          "internalType": "address",
          "name": "to",
          "type": "address"
        },
        {
          "internalType": "uint256",
          "name": "tokenId",
          "type": "uint256"
        }
      ],
      "name": "approve",
      "outputs": [],
      "stateMutability": "nonpayable",
      "type": "function"
    },
    {
      "inputs": [
        {
          "internalType": "address",
          "name": "owner",
          "type": "address"
        }
      ],
      "name": "balanceOf",
      "outputs": [
        {
          "internalType": "uint256",
          "name": "",
          "type": "uint256"
        }
      ],
      "stateMutability": "view",
      "type": "function",
      "constant": true
    },
    {
      "inputs": [
        {
          "internalType": "uint256",
          "name": "tokenId",
          "type": "uint256"
        }
      ],
      "name": "getApproved",
      "outputs": [
        {
          "internalType": "address",
          "name": "",
          "type": "address"
        }
      ],
      "stateMutability": "view",
      "type": "function",
      "constant": true
    },
    {
      "inputs": [
        {
          "internalType": "address",
          "name": "owner",
          "type": "address"
        },
        {
          "internalType": "address",
          "name": "operator",
          "type": "address"
        }
      ],
      "name": "isApprovedForAll",
      "outputs": [
        {
          "internalType": "bool",
          "name": "",
          "type": "bool"
        }
      ],
      "stateMutability": "view",
      "type": "function",
      "constant": true
    },
    {
      "inputs": [],
      "name": "name",
      "outputs": [
        {
          "internalType": "string",
          "name": "",
          "type": "string"
        }
      ],
      "stateMutability": "view",
      "type": "function",
      "constant": true
    },
    {
      "inputs": [
        {
          "internalType": "uint256",
          "name": "tokenId",
          "type": "uint256"
        }
      ],
      "name": "ownerOf",
      "outputs": [
        {
          "internalType": "address",
          "name": "",
          "type": "address"
        }
      ],
      "stateMutability": "view",
      "type": "function",
      "constant": true
    },
    {
      "inputs": [
        {
          "internalType": "address",
          "name": "from",
          "type": "address"
        },
        {
          "internalType": "address",
          "name": "to",
          "type": "address"
        },
        {
          "internalType": "uint256",
          "name": "tokenId",
          "type": "uint256"
        }
      ],
      "name": "safeTransferFrom",
      "outputs": [],
      "stateMutability": "nonpayable",
      "type": "function"
    },
    {
      "inputs": [
        {
          "internalType": "address",
          "name": "from",
          "type": "address"
        },
        {
          "internalType": "address",
          "name": "to",
          "type": "address"
        },
        {
          "internalType": "uint256",
          "name": "tokenId",
          "type": "uint256"
        },
        {
          "internalType": "bytes",
          "name": "_data",
          "type": "bytes"
        }
      ],
      "name": "safeTransferFrom",
      "outputs": [],
      "stateMutability": "nonpayable",
      "type": "function"
    },
    {
      "inputs": [
        {
          "internalType": "address",
          "name": "operator",
          "type": "address"
        },
        {
          "internalType": "bool",
          "name": "approved",
          "type": "bool"
        }
      ],
      "name": "setApprovalForAll",
      "outputs": [],
      "stateMutability": "nonpayable",
      "type": "function"
    },
    {
      "inputs": [],
      "name": "symbol",
      "outputs": [
        {
          "internalType": "string",
          "name": "",
          "type": "string"
        }
      ],
      "stateMutability": "view",
      "type": "function",
      "constant": true
    },
    {
      "inputs": [
        {
          "internalType": "uint256",
          "name": "index",
          "type": "uint256"
        }
      ],
      "name": "tokenByIndex",
      "outputs": [
        {
          "internalType": "uint256",
          "name": "",
          "type": "uint256"
        }
      ],
      "stateMutability": "view",
      "type": "function",
      "constant": true
    },
    {
      "inputs": [
        {
          "internalType": "address",
          "name": "owner",
          "type": "address"
        },
        {
          "internalType": "uint256",
          "name": "index",
          "type": "uint256"
        }
      ],
      "name": "tokenOfOwnerByIndex",
      "outputs": [
        {
          "internalType": "uint256",
          "name": "",
          "type": "uint256"
        }
      ],
      "stateMutability": "view",
      "type": "function",
      "constant": true
    },
    {
      "inputs": [],
      "name": "totalSupply",
      "outputs": [
        {
          "internalType": "uint256",
          "name": "",
          "type": "uint256"
        }
      ],
      "stateMutability": "view",
      "type": "function",
      "constant": true
    },
    {
      "inputs": [
        {
          "internalType": "address",
          "name": "from",
          "type": "address"
        },
        {
          "internalType": "address",
          "name": "to",
          "type": "address"
        },
        {
          "internalType": "uint256",
          "name": "tokenId",
          "type": "uint256"
        }
      ],
      "name": "transferFrom",
      "outputs": [],
      "stateMutability": "nonpayable",
      "type": "function"
    },
    {
      "inputs": [
        {
          "internalType": "uint256",
          "name": "tokenId",
          "type": "uint256"
        }
      ],
      "name": "tokenURI",
      "outputs": [
        {
          "internalType": "string",
          "name": "",
          "type": "string"
        }
      ],
      "stateMutability": "view",
      "type": "function",
      "constant": true
    },
    {
      "inputs": [
        {
          "internalType": "bytes4",
          "name": "interfaceId",
          "type": "bytes4"
        }
      ],
      "name": "supportsInterface",
      "outputs": [
        {
          "internalType": "bool",
          "name": "",
          "type": "bool"
        }
      ],
      "stateMutability": "view",
      "type": "function",
      "constant": true
    },
    {
      "inputs": [
        {
          "internalType": "address",
          "name": "_to",
          "type": "address"
        },
        {
          "internalType": "string",
          "name": "_tokenURI",
          "type": "string"
        }
      ],
      "name": "mint",
      "outputs": [
        {
          "internalType": "bool",
          "name": "",
          "type": "bool"
        }
      ],
      "stateMutability": "nonpayable",
      "type": "function"
    }
  ],
  "bytecode": "0x60806040523480156200001157600080fd5b506040518060400160405280600e81526020017f4d792047616d65204d656d6f72790000000000000000000000000000000000008152506040518060400160405280600681526020017f4d454d4f52590000000000000000000000000000000000000000000000000000815250816000908051906020019062000096929190620000b8565b508060019080519060200190620000af929190620000b8565b505050620001cd565b828054620000c69062000168565b90600052602060002090601f016020900481019282620000ea576000855562000136565b82601f106200010557805160ff191683800117855562000136565b8280016001018555821562000136579182015b828111156200013557825182559160200191906001019062000118565b5b50905062000145919062000149565b5090565b5b80821115620001645760008160009055506001016200014a565b5090565b600060028204905060018216806200018157607f821691505b602082108114156200019857620001976200019e565b5b50919050565b7f4e487b7100000000000000000000000000000000000000000000000000000000600052602260045260246000fd5b61342d80620001dd6000396000f3fe608060405234801561001057600080fd5b506004361061010b5760003560e01c80634f6ccce7116100a2578063a22cb46511610071578063a22cb465146102de578063b88d4fde146102fa578063c87b56dd14610316578063d0def52114610346578063e985e9c5146103765761010b565b80634f6ccce7146102305780636352211e1461026057806370a082311461029057806395d89b41146102c05761010b565b806318160ddd116100de57806318160ddd146101aa57806323b872dd146101c85780632f745c59146101e457806342842e0e146102145761010b565b806301ffc9a71461011057806306fdde0314610140578063081812fc1461015e578063095ea7b31461018e575b600080fd5b61012a600480360381019061012591906122cc565b6103a6565b6040516101379190612747565b60405180910390f35b6101486103b8565b6040516101559190612762565b60405180910390f35b61017860048036038101906101739190612326565b61044a565b60405161018591906126e0565b60405180910390f35b6101a860048036038101906101a3919061228c565b6104cf565b005b6101b26105e7565b6040516101bf91906129e4565b60405180910390f35b6101e260048036038101906101dd919061211a565b6105f4565b005b6101fe60048036038101906101f9919061228c565b610654565b60405161020b91906129e4565b60405180910390f35b61022e6004803603810190610229919061211a565b6106f9565b005b61024a60048036038101906102459190612326565b610719565b60405161025791906129e4565b60405180910390f35b61027a60048036038101906102759190612326565b61078a565b60405161028791906126e0565b60405180910390f35b6102aa60048036038101906102a591906120ad565b61083c565b6040516102b791906129e4565b60405180910390f35b6102c86108f4565b6040516102d59190612762565b60405180910390f35b6102f860048036038101906102f391906121f0565b610986565b005b610314600480360381019061030f919061216d565b610b07565b005b610330600480360381019061032b9190612326565b610b69565b60405161033d9190612762565b60405180910390f35b610360600480360381019061035b9190612230565b610b7b565b60405161036d9190612747565b60405180910390f35b610390600480360381019061038b91906120da565b610bba565b60405161039d9190612747565b60405180910390f35b60006103b182610c4e565b9050919050565b6060600080546103c790612c3a565b80601f01602080910402602001604051908101604052809291908181526020018280546103f390612c3a565b80156104405780601f1061041557610100808354040283529160200191610440565b820191906000526020600020905b81548152906001019060200180831161042357829003601f168201915b5050505050905090565b600061045582610cc8565b610494576040517f08c379a000000000000000000000000000000000000000000000000000000000815260040161048b90612924565b60405180910390fd5b6004600083815260200190815260200160002060009054906101000a900473ffffffffffffffffffffffffffffffffffffffff169050919050565b60006104da8261078a565b90508073ffffffffffffffffffffffffffffffffffffffff168373ffffffffffffffffffffffffffffffffffffffff16141561054b576040517f08c379a000000000000000000000000000000000000000000000000000000000815260040161054290612984565b60405180910390fd5b8073ffffffffffffffffffffffffffffffffffffffff1661056a610d34565b73ffffffffffffffffffffffffffffffffffffffff161480610599575061059881610593610d34565b610bba565b5b6105d8576040517f08c379a00000000000000000000000000000000000000000000000000000000081526004016105cf90612864565b60405180910390fd5b6105e28383610d3c565b505050565b6000600880549050905090565b6106056105ff610d34565b82610df5565b610644576040517f08c379a000000000000000000000000000000000000000000000000000000000815260040161063b906129a4565b60405180910390fd5b61064f838383610ed3565b505050565b600061065f8361083c565b82106106a0576040517f08c379a000000000000000000000000000000000000000000000000000000000815260040161069790612784565b60405180910390fd5b600660008473ffffffffffffffffffffffffffffffffffffffff1673ffffffffffffffffffffffffffffffffffffffff168152602001908152602001600020600083815260200190815260200160002054905092915050565b61071483838360405180602001604052806000815250610b07565b505050565b60006107236105e7565b8210610764576040517f08c379a000000000000000000000000000000000000000000000000000000000815260040161075b906129c4565b60405180910390fd5b6008828154811061077857610777612dd3565b5b90600052602060002001549050919050565b6000806002600084815260200190815260200160002060009054906101000a900473ffffffffffffffffffffffffffffffffffffffff169050600073ffffffffffffffffffffffffffffffffffffffff168173ffffffffffffffffffffffffffffffffffffffff161415610833576040517f08c379a000000000000000000000000000000000000000000000000000000000815260040161082a906128a4565b60405180910390fd5b80915050919050565b60008073ffffffffffffffffffffffffffffffffffffffff168273ffffffffffffffffffffffffffffffffffffffff1614156108ad576040517f08c379a00000000000000000000000000000000000000000000000000000000081526004016108a490612884565b60405180910390fd5b600360008373ffffffffffffffffffffffffffffffffffffffff1673ffffffffffffffffffffffffffffffffffffffff168152602001908152602001600020549050919050565b60606001805461090390612c3a565b80601f016020809104026020016040519081016040528092919081815260200182805461092f90612c3a565b801561097c5780601f106109515761010080835404028352916020019161097c565b820191906000526020600020905b81548152906001019060200180831161095f57829003601f168201915b5050505050905090565b61098e610d34565b73ffffffffffffffffffffffffffffffffffffffff168273ffffffffffffffffffffffffffffffffffffffff1614156109fc576040517f08c379a00000000000000000000000000000000000000000000000000000000081526004016109f390612824565b60405180910390fd5b8060056000610a09610d34565b73ffffffffffffffffffffffffffffffffffffffff1673ffffffffffffffffffffffffffffffffffffffff16815260200190815260200160002060008473ffffffffffffffffffffffffffffffffffffffff1673ffffffffffffffffffffffffffffffffffffffff16815260200190815260200160002060006101000a81548160ff0219169083151502179055508173ffffffffffffffffffffffffffffffffffffffff16610ab6610d34565b73ffffffffffffffffffffffffffffffffffffffff167f17307eab39ab6107e8899845ad3d59bd9653f200f220920489ca2b5937696c3183604051610afb9190612747565b60405180910390a35050565b610b18610b12610d34565b83610df5565b610b57576040517f08c379a0000000000000000000000000000000000000000000000000000000008152600401610b4e906129a4565b60405180910390fd5b610b638484848461112f565b50505050565b6060610b748261118b565b9050919050565b600080610b996001610b8b6105e7565b6112dd90919063ffffffff16565b9050610ba5848261133b565b610baf8184611509565b600191505092915050565b6000600560008473ffffffffffffffffffffffffffffffffffffffff1673ffffffffffffffffffffffffffffffffffffffff16815260200190815260200160002060008373ffffffffffffffffffffffffffffffffffffffff1673ffffffffffffffffffffffffffffffffffffffff16815260200190815260200160002060009054906101000a900460ff16905092915050565b60007f780e9d63000000000000000000000000000000000000000000000000000000007bffffffffffffffffffffffffffffffffffffffffffffffffffffffff1916827bffffffffffffffffffffffffffffffffffffffffffffffffffffffff19161480610cc15750610cc08261157d565b5b9050919050565b60008073ffffffffffffffffffffffffffffffffffffffff166002600084815260200190815260200160002060009054906101000a900473ffffffffffffffffffffffffffffffffffffffff1673ffffffffffffffffffffffffffffffffffffffff1614159050919050565b600033905090565b816004600083815260200190815260200160002060006101000a81548173ffffffffffffffffffffffffffffffffffffffff021916908373ffffffffffffffffffffffffffffffffffffffff160217905550808273ffffffffffffffffffffffffffffffffffffffff16610daf8361078a565b73ffffffffffffffffffffffffffffffffffffffff167f8c5be1e5ebec7d5bd14f71427d1e84f3dd0314c0f7b2291e5b200ac8c7c3b92560405160405180910390a45050565b6000610e0082610cc8565b610e3f576040517f08c379a0000000000000000000000000000000000000000000000000000000008152600401610e3690612844565b60405180910390fd5b6000610e4a8361078a565b90508073ffffffffffffffffffffffffffffffffffffffff168473ffffffffffffffffffffffffffffffffffffffff161480610eb957508373ffffffffffffffffffffffffffffffffffffffff16610ea18461044a565b73ffffffffffffffffffffffffffffffffffffffff16145b80610eca5750610ec98185610bba565b5b91505092915050565b8273ffffffffffffffffffffffffffffffffffffffff16610ef38261078a565b73ffffffffffffffffffffffffffffffffffffffff1614610f49576040517f08c379a0000000000000000000000000000000000000000000000000000000008152600401610f4090612944565b60405180910390fd5b600073ffffffffffffffffffffffffffffffffffffffff168273ffffffffffffffffffffffffffffffffffffffff161415610fb9576040517f08c379a0000000000000000000000000000000000000000000000000000000008152600401610fb090612804565b60405180910390fd5b610fc483838361165f565b610fcf600082610d3c565b6001600360008573ffffffffffffffffffffffffffffffffffffffff1673ffffffffffffffffffffffffffffffffffffffff168152602001908152602001600020600082825461101f9190612b50565b925050819055506001600360008473ffffffffffffffffffffffffffffffffffffffff1673ffffffffffffffffffffffffffffffffffffffff16815260200190815260200160002060008282546110769190612ac9565b92505081905550816002600083815260200190815260200160002060006101000a81548173ffffffffffffffffffffffffffffffffffffffff021916908373ffffffffffffffffffffffffffffffffffffffff160217905550808273ffffffffffffffffffffffffffffffffffffffff168473ffffffffffffffffffffffffffffffffffffffff167fddf252ad1be2c89b69c2b068fc378daa952ba7f163c4a11628f55a4df523b3ef60405160405180910390a4505050565b61113a848484610ed3565b6111468484848461166f565b611185576040517f08c379a000000000000000000000000000000000000000000000000000000000815260040161117c906127a4565b60405180910390fd5b50505050565b606061119682610cc8565b6111d5576040517f08c379a00000000000000000000000000000000000000000000000000000000081526004016111cc90612904565b60405180910390fd5b6000600a600084815260200190815260200160002080546111f590612c3a565b80601f016020809104026020016040519081016040528092919081815260200182805461122190612c3a565b801561126e5780601f106112435761010080835404028352916020019161126e565b820191906000526020600020905b81548152906001019060200180831161125157829003601f168201915b50505050509050600061127f611806565b90506000815114156112955781925050506112d8565b6000825111156112ca5780826040516020016112b29291906126bc565b604051602081830303815290604052925050506112d8565b6112d38461181d565b925050505b919050565b60008082846112ec9190612ac9565b905083811015611331576040517f08c379a0000000000000000000000000000000000000000000000000000000008152600401611328906127e4565b60405180910390fd5b8091505092915050565b600073ffffffffffffffffffffffffffffffffffffffff168273ffffffffffffffffffffffffffffffffffffffff1614156113ab576040517f08c379a00000000000000000000000000000000000000000000000000000000081526004016113a2906128e4565b60405180910390fd5b6113b481610cc8565b156113f4576040517f08c379a00000000000000000000000000000000000000000000000000000000081526004016113eb906127c4565b60405180910390fd5b6114006000838361165f565b6001600360008473ffffffffffffffffffffffffffffffffffffffff1673ffffffffffffffffffffffffffffffffffffffff16815260200190815260200160002060008282546114509190612ac9565b92505081905550816002600083815260200190815260200160002060006101000a81548173ffffffffffffffffffffffffffffffffffffffff021916908373ffffffffffffffffffffffffffffffffffffffff160217905550808273ffffffffffffffffffffffffffffffffffffffff16600073ffffffffffffffffffffffffffffffffffffffff167fddf252ad1be2c89b69c2b068fc378daa952ba7f163c4a11628f55a4df523b3ef60405160405180910390a45050565b61151282610cc8565b611551576040517f08c379a0000000000000000000000000000000000000000000000000000000008152600401611548906128c4565b60405180910390fd5b80600a60008481526020019081526020016000209080519060200190611578929190611ec1565b505050565b60007f80ac58cd000000000000000000000000000000000000000000000000000000007bffffffffffffffffffffffffffffffffffffffffffffffffffffffff1916827bffffffffffffffffffffffffffffffffffffffffffffffffffffffff1916148061164857507f5b5e139f000000000000000000000000000000000000000000000000000000007bffffffffffffffffffffffffffffffffffffffffffffffffffffffff1916827bffffffffffffffffffffffffffffffffffffffffffffffffffffffff1916145b806116585750611657826118c4565b5b9050919050565b61166a83838361192e565b505050565b60006116908473ffffffffffffffffffffffffffffffffffffffff16611a42565b156117f9578373ffffffffffffffffffffffffffffffffffffffff1663150b7a026116b9610d34565b8786866040518563ffffffff1660e01b81526004016116db94939291906126fb565b602060405180830381600087803b1580156116f557600080fd5b505af192505050801561172657506040513d601f19601f8201168201806040525081019061172391906122f9565b60015b6117a9573d8060008114611756576040519150601f19603f3d011682016040523d82523d6000602084013e61175b565b606091505b506000815114156117a1576040517f08c379a0000000000000000000000000000000000000000000000000000000008152600401611798906127a4565b60405180910390fd5b805181602001fd5b63150b7a0260e01b7bffffffffffffffffffffffffffffffffffffffffffffffffffffffff1916817bffffffffffffffffffffffffffffffffffffffffffffffffffffffff1916149150506117fe565b600190505b949350505050565b606060405180602001604052806000815250905090565b606061182882610cc8565b611867576040517f08c379a000000000000000000000000000000000000000000000000000000000815260040161185e90612964565b60405180910390fd5b6000611871611806565b9050600081511161189157604051806020016040528060008152506118bc565b8061189b84611a55565b6040516020016118ac9291906126bc565b6040516020818303038152906040525b915050919050565b60007f01ffc9a7000000000000000000000000000000000000000000000000000000007bffffffffffffffffffffffffffffffffffffffffffffffffffffffff1916827bffffffffffffffffffffffffffffffffffffffffffffffffffffffff1916149050919050565b611939838383611bb6565b600073ffffffffffffffffffffffffffffffffffffffff168373ffffffffffffffffffffffffffffffffffffffff16141561197c5761197781611bbb565b6119bb565b8173ffffffffffffffffffffffffffffffffffffffff168373ffffffffffffffffffffffffffffffffffffffff16146119ba576119b98382611c04565b5b5b600073ffffffffffffffffffffffffffffffffffffffff168273ffffffffffffffffffffffffffffffffffffffff1614156119fe576119f981611d71565b611a3d565b8273ffffffffffffffffffffffffffffffffffffffff168273ffffffffffffffffffffffffffffffffffffffff1614611a3c57611a3b8282611e42565b5b5b505050565b600080823b905060008111915050919050565b60606000821415611a9d576040518060400160405280600181526020017f30000000000000000000000000000000000000000000000000000000000000008152509050611bb1565b600082905060005b60008214611acf578080611ab890612c9d565b915050600a82611ac89190612b1f565b9150611aa5565b60008167ffffffffffffffff811115611aeb57611aea612e02565b5b6040519080825280601f01601f191660200182016040528015611b1d5781602001600182028036833780820191505090505b5090505b60008514611baa57600182611b369190612b50565b9150600a85611b459190612ce6565b6030611b519190612ac9565b60f81b818381518110611b6757611b66612dd3565b5b60200101907effffffffffffffffffffffffffffffffffffffffffffffffffffffffffffff1916908160001a905350600a85611ba39190612b1f565b9450611b21565b8093505050505b919050565b505050565b6008805490506009600083815260200190815260200160002081905550600881908060018154018082558091505060019003906000526020600020016000909190919091505550565b60006001611c118461083c565b611c1b9190612b50565b9050600060076000848152602001908152602001600020549050818114611d00576000600660008673ffffffffffffffffffffffffffffffffffffffff1673ffffffffffffffffffffffffffffffffffffffff168152602001908152602001600020600084815260200190815260200160002054905080600660008773ffffffffffffffffffffffffffffffffffffffff1673ffffffffffffffffffffffffffffffffffffffff168152602001908152602001600020600084815260200190815260200160002081905550816007600083815260200190815260200160002081905550505b6007600084815260200190815260200160002060009055600660008573ffffffffffffffffffffffffffffffffffffffff1673ffffffffffffffffffffffffffffffffffffffff16815260200190815260200160002060008381526020019081526020016000206000905550505050565b60006001600880549050611d859190612b50565b9050600060096000848152602001908152602001600020549050600060088381548110611db557611db4612dd3565b5b906000526020600020015490508060088381548110611dd757611dd6612dd3565b5b906000526020600020018190555081600960008381526020019081526020016000208190555060096000858152602001908152602001600020600090556008805480611e2657611e25612da4565b5b6001900381819060005260206000200160009055905550505050565b6000611e4d8361083c565b905081600660008573ffffffffffffffffffffffffffffffffffffffff1673ffffffffffffffffffffffffffffffffffffffff168152602001908152602001600020600083815260200190815260200160002081905550806007600084815260200190815260200160002081905550505050565b828054611ecd90612c3a565b90600052602060002090601f016020900481019282611eef5760008555611f36565b82601f10611f0857805160ff1916838001178555611f36565b82800160010185558215611f36579182015b82811115611f35578251825591602001919060010190611f1a565b5b509050611f439190611f47565b5090565b5b80821115611f60576000816000905550600101611f48565b5090565b6000611f77611f7284612a24565b6129ff565b905082815260208101848484011115611f9357611f92612e36565b5b611f9e848285612bf8565b509392505050565b6000611fb9611fb484612a55565b6129ff565b905082815260208101848484011115611fd557611fd4612e36565b5b611fe0848285612bf8565b509392505050565b600081359050611ff78161339b565b92915050565b60008135905061200c816133b2565b92915050565b600081359050612021816133c9565b92915050565b600081519050612036816133c9565b92915050565b600082601f83011261205157612050612e31565b5b8135612061848260208601611f64565b91505092915050565b600082601f83011261207f5761207e612e31565b5b813561208f848260208601611fa6565b91505092915050565b6000813590506120a7816133e0565b92915050565b6000602082840312156120c3576120c2612e40565b5b60006120d184828501611fe8565b91505092915050565b600080604083850312156120f1576120f0612e40565b5b60006120ff85828601611fe8565b925050602061211085828601611fe8565b9150509250929050565b60008060006060848603121561213357612132612e40565b5b600061214186828701611fe8565b935050602061215286828701611fe8565b925050604061216386828701612098565b9150509250925092565b6000806000806080858703121561218757612186612e40565b5b600061219587828801611fe8565b94505060206121a687828801611fe8565b93505060406121b787828801612098565b925050606085013567ffffffffffffffff8111156121d8576121d7612e3b565b5b6121e48782880161203c565b91505092959194509250565b6000806040838503121561220757612206612e40565b5b600061221585828601611fe8565b925050602061222685828601611ffd565b9150509250929050565b6000806040838503121561224757612246612e40565b5b600061225585828601611fe8565b925050602083013567ffffffffffffffff81111561227657612275612e3b565b5b6122828582860161206a565b9150509250929050565b600080604083850312156122a3576122a2612e40565b5b60006122b185828601611fe8565b92505060206122c285828601612098565b9150509250929050565b6000602082840312156122e2576122e1612e40565b5b60006122f084828501612012565b91505092915050565b60006020828403121561230f5761230e612e40565b5b600061231d84828501612027565b91505092915050565b60006020828403121561233c5761233b612e40565b5b600061234a84828501612098565b91505092915050565b61235c81612b84565b82525050565b61236b81612b96565b82525050565b600061237c82612a86565b6123868185612a9c565b9350612396818560208601612c07565b61239f81612e45565b840191505092915050565b60006123b582612a91565b6123bf8185612aad565b93506123cf818560208601612c07565b6123d881612e45565b840191505092915050565b60006123ee82612a91565b6123f88185612abe565b9350612408818560208601612c07565b80840191505092915050565b6000612421602b83612aad565b915061242c82612e56565b604082019050919050565b6000612444603283612aad565b915061244f82612ea5565b604082019050919050565b6000612467601c83612aad565b915061247282612ef4565b602082019050919050565b600061248a601b83612aad565b915061249582612f1d565b602082019050919050565b60006124ad602483612aad565b91506124b882612f46565b604082019050919050565b60006124d0601983612aad565b91506124db82612f95565b602082019050919050565b60006124f3602c83612aad565b91506124fe82612fbe565b604082019050919050565b6000612516603883612aad565b91506125218261300d565b604082019050919050565b6000612539602a83612aad565b91506125448261305c565b604082019050919050565b600061255c602983612aad565b9150612567826130ab565b604082019050919050565b600061257f602e83612aad565b915061258a826130fa565b604082019050919050565b60006125a2602083612aad565b91506125ad82613149565b602082019050919050565b60006125c5603183612aad565b91506125d082613172565b604082019050919050565b60006125e8602c83612aad565b91506125f3826131c1565b604082019050919050565b600061260b602983612aad565b915061261682613210565b604082019050919050565b600061262e602f83612aad565b91506126398261325f565b604082019050919050565b6000612651602183612aad565b915061265c826132ae565b604082019050919050565b6000612674603183612aad565b915061267f826132fd565b604082019050919050565b6000612697602c83612aad565b91506126a28261334c565b604082019050919050565b6126b681612bee565b82525050565b60006126c882856123e3565b91506126d482846123e3565b91508190509392505050565b60006020820190506126f56000830184612353565b92915050565b60006080820190506127106000830187612353565b61271d6020830186612353565b61272a60408301856126ad565b818103606083015261273c8184612371565b905095945050505050565b600060208201905061275c6000830184612362565b92915050565b6000602082019050818103600083015261277c81846123aa565b905092915050565b6000602082019050818103600083015261279d81612414565b9050919050565b600060208201905081810360008301526127bd81612437565b9050919050565b600060208201905081810360008301526127dd8161245a565b9050919050565b600060208201905081810360008301526127fd8161247d565b9050919050565b6000602082019050818103600083015261281d816124a0565b9050919050565b6000602082019050818103600083015261283d816124c3565b9050919050565b6000602082019050818103600083015261285d816124e6565b9050919050565b6000602082019050818103600083015261287d81612509565b9050919050565b6000602082019050818103600083015261289d8161252c565b9050919050565b600060208201905081810360008301526128bd8161254f565b9050919050565b600060208201905081810360008301526128dd81612572565b9050919050565b600060208201905081810360008301526128fd81612595565b9050919050565b6000602082019050818103600083015261291d816125b8565b9050919050565b6000602082019050818103600083015261293d816125db565b9050919050565b6000602082019050818103600083015261295d816125fe565b9050919050565b6000602082019050818103600083015261297d81612621565b9050919050565b6000602082019050818103600083015261299d81612644565b9050919050565b600060208201905081810360008301526129bd81612667565b9050919050565b600060208201905081810360008301526129dd8161268a565b9050919050565b60006020820190506129f960008301846126ad565b92915050565b6000612a09612a1a565b9050612a158282612c6c565b919050565b6000604051905090565b600067ffffffffffffffff821115612a3f57612a3e612e02565b5b612a4882612e45565b9050602081019050919050565b600067ffffffffffffffff821115612a7057612a6f612e02565b5b612a7982612e45565b9050602081019050919050565b600081519050919050565b600081519050919050565b600082825260208201905092915050565b600082825260208201905092915050565b600081905092915050565b6000612ad482612bee565b9150612adf83612bee565b9250827fffffffffffffffffffffffffffffffffffffffffffffffffffffffffffffffff03821115612b1457612b13612d17565b5b828201905092915050565b6000612b2a82612bee565b9150612b3583612bee565b925082612b4557612b44612d46565b5b828204905092915050565b6000612b5b82612bee565b9150612b6683612bee565b925082821015612b7957612b78612d17565b5b828203905092915050565b6000612b8f82612bce565b9050919050565b60008115159050919050565b60007fffffffff0000000000000000000000000000000000000000000000000000000082169050919050565b600073ffffffffffffffffffffffffffffffffffffffff82169050919050565b6000819050919050565b82818337600083830152505050565b60005b83811015612c25578082015181840152602081019050612c0a565b83811115612c34576000848401525b50505050565b60006002820490506001821680612c5257607f821691505b60208210811415612c6657612c65612d75565b5b50919050565b612c7582612e45565b810181811067ffffffffffffffff82111715612c9457612c93612e02565b5b80604052505050565b6000612ca882612bee565b91507fffffffffffffffffffffffffffffffffffffffffffffffffffffffffffffffff821415612cdb57612cda612d17565b5b600182019050919050565b6000612cf182612bee565b9150612cfc83612bee565b925082612d0c57612d0b612d46565b5b828206905092915050565b7f4e487b7100000000000000000000000000000000000000000000000000000000600052601160045260246000fd5b7f4e487b7100000000000000000000000000000000000000000000000000000000600052601260045260246000fd5b7f4e487b7100000000000000000000000000000000000000000000000000000000600052602260045260246000fd5b7f4e487b7100000000000000000000000000000000000000000000000000000000600052603160045260246000fd5b7f4e487b7100000000000000000000000000000000000000000000000000000000600052603260045260246000fd5b7f4e487b7100000000000000000000000000000000000000000000000000000000600052604160045260246000fd5b600080fd5b600080fd5b600080fd5b600080fd5b6000601f19601f8301169050919050565b7f455243373231456e756d657261626c653a206f776e657220696e646578206f7560008201527f74206f6620626f756e6473000000000000000000000000000000000000000000602082015250565b7f4552433732313a207472616e7366657220746f206e6f6e20455243373231526560008201527f63656976657220696d706c656d656e7465720000000000000000000000000000602082015250565b7f4552433732313a20746f6b656e20616c7265616479206d696e74656400000000600082015250565b7f536166654d6174683a206164646974696f6e206f766572666c6f770000000000600082015250565b7f4552433732313a207472616e7366657220746f20746865207a65726f2061646460008201527f7265737300000000000000000000000000000000000000000000000000000000602082015250565b7f4552433732313a20617070726f766520746f2063616c6c657200000000000000600082015250565b7f4552433732313a206f70657261746f7220717565727920666f72206e6f6e657860008201527f697374656e7420746f6b656e0000000000000000000000000000000000000000602082015250565b7f4552433732313a20617070726f76652063616c6c6572206973206e6f74206f7760008201527f6e6572206e6f7220617070726f76656420666f7220616c6c0000000000000000602082015250565b7f4552433732313a2062616c616e636520717565727920666f7220746865207a6560008201527f726f206164647265737300000000000000000000000000000000000000000000602082015250565b7f4552433732313a206f776e657220717565727920666f72206e6f6e657869737460008201527f656e7420746f6b656e0000000000000000000000000000000000000000000000602082015250565b7f45524337323155524953746f726167653a2055524920736574206f66206e6f6e60008201527f6578697374656e7420746f6b656e000000000000000000000000000000000000602082015250565b7f4552433732313a206d696e7420746f20746865207a65726f2061646472657373600082015250565b7f45524337323155524953746f726167653a2055524920717565727920666f722060008201527f6e6f6e6578697374656e7420746f6b656e000000000000000000000000000000602082015250565b7f4552433732313a20617070726f76656420717565727920666f72206e6f6e657860008201527f697374656e7420746f6b656e0000000000000000000000000000000000000000602082015250565b7f4552433732313a207472616e73666572206f6620746f6b656e2074686174206960008201527f73206e6f74206f776e0000000000000000000000000000000000000000000000602082015250565b7f4552433732314d657461646174613a2055524920717565727920666f72206e6f60008201527f6e6578697374656e7420746f6b656e0000000000000000000000000000000000602082015250565b7f4552433732313a20617070726f76616c20746f2063757272656e74206f776e6560008201527f7200000000000000000000000000000000000000000000000000000000000000602082015250565b7f4552433732313a207472616e736665722063616c6c6572206973206e6f74206f60008201527f776e6572206e6f7220617070726f766564000000000000000000000000000000602082015250565b7f455243373231456e756d657261626c653a20676c6f62616c20696e646578206f60008201527f7574206f6620626f756e64730000000000000000000000000000000000000000602082015250565b6133a481612b84565b81146133af57600080fd5b50565b6133bb81612b96565b81146133c657600080fd5b50565b6133d281612ba2565b81146133dd57600080fd5b50565b6133e981612bee565b81146133f457600080fd5b5056fea2646970667358221220d8bceb4645ad166177b94046fc6c63c35919a8f4a8beb15820a8b942023088c464736f6c63430008070033",
  "immutableReferences": {},
  "source": "// SPDX-License-Identifier: MIT\r\npragma solidity ^0.8.0;\r\n\r\nimport \"@openzeppelin/contracts/token/ERC721/ERC721.sol\";\r\nimport \"@openzeppelin/contracts/token/ERC721/extensions/ERC721Enumerable.sol\";\r\nimport \"@openzeppelin/contracts/token/ERC721/extensions/ERC721URIStorage.sol\";\r\n\r\nimport './safeMath.sol';\r\n\r\ncontract Token is ERC721, ERC721Enumerable, ERC721URIStorage {\r\n    using SafeMath for uint;\r\n    \r\n    constructor() ERC721(\"My Game Memory\", \"MEMORY\") {}\r\n\r\n    function _beforeTokenTransfer(address from, address to, uint256 tokenId)\r\n        internal\r\n        override(ERC721, ERC721Enumerable)\r\n    {\r\n        super._beforeTokenTransfer(from, to, tokenId);\r\n    }\r\n\r\n    function _burn(uint256 tokenId) internal override(ERC721, ERC721URIStorage) {\r\n        super._burn(tokenId);\r\n    }\r\n\r\n    function tokenURI(uint256 tokenId)\r\n        public\r\n        view\r\n        override(ERC721, ERC721URIStorage)\r\n        returns (string memory)\r\n    {\r\n        return super.tokenURI(tokenId);\r\n    }\r\n\r\n    function supportsInterface(bytes4 interfaceId)\r\n        public\r\n        view\r\n        override(ERC721, ERC721Enumerable)\r\n        returns (bool)\r\n    {\r\n        return super.supportsInterface(interfaceId);\r\n    }\r\n\r\n    function mint(address _to, string memory _tokenURI) public returns(bool){\r\n        uint tokenId = totalSupply().add(1);\r\n        _mint(_to, tokenId);\r\n        _setTokenURI(tokenId, _tokenURI);\r\n        return true;\r\n    }\r\n}",
  "sourcePath": "C:\\Users\\Owner\\Desktop\\blockchain_game\\src\\contracts\\Token.sol",
  "compiler": {
    "name": "solc",
    "version": "0.8.7+commit.e28d00a7.Emscripten.clang"
  },
  "schemaVersion": "3.4.2",
  "updatedAt": "2021-08-12T22:41:22.582Z",
  "networkType": "ethereum",
  "devdoc": {
    "kind": "dev",
    "methods": {
      "approve(address,uint256)": {
        "details": "See {IERC721-approve}."
      },
      "balanceOf(address)": {
        "details": "See {IERC721-balanceOf}."
      },
      "getApproved(uint256)": {
        "details": "See {IERC721-getApproved}."
      },
      "isApprovedForAll(address,address)": {
        "details": "See {IERC721-isApprovedForAll}."
      },
      "name()": {
        "details": "See {IERC721Metadata-name}."
      },
      "ownerOf(uint256)": {
        "details": "See {IERC721-ownerOf}."
      },
      "safeTransferFrom(address,address,uint256)": {
        "details": "See {IERC721-safeTransferFrom}."
      },
      "safeTransferFrom(address,address,uint256,bytes)": {
        "details": "See {IERC721-safeTransferFrom}."
      },
      "setApprovalForAll(address,bool)": {
        "details": "See {IERC721-setApprovalForAll}."
      },
      "symbol()": {
        "details": "See {IERC721Metadata-symbol}."
      },
      "tokenByIndex(uint256)": {
        "details": "See {IERC721Enumerable-tokenByIndex}."
      },
      "tokenOfOwnerByIndex(address,uint256)": {
        "details": "See {IERC721Enumerable-tokenOfOwnerByIndex}."
      },
      "totalSupply()": {
        "details": "See {IERC721Enumerable-totalSupply}."
      },
      "transferFrom(address,address,uint256)": {
        "details": "See {IERC721-transferFrom}."
      }
    },
    "version": 1
  },
  "userdoc": {
    "kind": "user",
    "methods": {},
    "version": 1
  }
}